3141010106A000000025010000000000000000000001AMEX            030001000100010769862012005532443001074200000027E068C8F000F0A00122C4000000000000000000C40000000000000000R16000005DC00000000000003E8000109F02065F2A029A039C0195059F370400000000009F37040000000000000000000000000000000000Y1Z1Y3Z3DC50FC98000010000000DE00FC9800
61120102A0000000250101103FFFF096AFAD7010F884E2824650F764D47D7951A16EED6DBB881F384DEDB6702E0FB55C0FBEF945A2017705E5286FA249A591E194BDCD74B21720B44CE986F144237A25F95789F38B47EA957F9ADB2372F6D5D41340A147EAC2AF324E8358AE1120EF3FFFFFFFFFFFFFFFFFFFFFFFFFFFFFFFFFFFFFFFFFFFFFFFFFFFFFFFFFFFFFFFFFFFFFFFFFFFFFFFFFFFFFFFFFFFFFFFFFFFFFFFFFFFFFFFFFFFFFFFFFFFFFFFFFFFFFFFFFFFFFFFFFFFFFFFFFFFFFFFFFFFFFFFFFFFFFFFFFFFFFFFFFFFFFFFFFFFFFFFFFFFFFFFFFFFFFFFFFFFFFFFFFFFFFFFFFFFFFFFFFFFFFFFFFFFFFFFFFFFFFFFFFFFFFFFFFFFFFFFFFFFFFFFFFFFFFFFFFFFFFFFFF00000000000000000000000000000000000000000000000000000000000000000000000000000000000
61120103A0000000250201103FFFF112AF4B8D230FDFCB1538E975795A1DB40C396A5359FAA31AE095CB522A5C82E7FFFB252860EC2833EC3D4A665F133DD934EE1148D81E2B7E03F92995DDF7EB7C90A75AB98E69C92EC91A533B21E1C4918B43AFED5780DE13A32BBD37EBC384FA3DD1A453E327C56024DACAEA74AA052C4DFFFFFFFFFFFFFFFFFFFFFFFFFFFFFFFFFFFFFFFFFFFFFFFFFFFFFFFFFFFFFFFFFFFFFFFFFFFFFFFFFFFFFFFFFFFFFFFFFFFFFFFFFFFFFFFFFFFFFFFFFFFFFFFFFFFFFFFFFFFFFFFFFFFFFFFFFFFFFFFFFFFFFFFFFFFFFFFFFFFFFFFFFFFFFFFFFFFFFFFFFFFFFFFFFFFFFFFFFFFFFFFFFFFFFFFFFFFFFFFFFFFFFFFFFFFFFFFFFFFFFFFFFFFFFFFF00000000000000000000000000000000000000000000000000000000000000000000000000000000000
61120104A0000000250301103FFFF128B0C2C6E2A6386933CD17C239496BF48C57E389164F2A96BFF133439AE8A77B20498BD4DC6959AB0C2D05D0723AF3668901937B674E5A2FA92DDD5E78EA9D75D79620173CC269B35F463B3D4AAFF2794F92E6C7A3FB95325D8AB95960C3066BE548087BCB6CE12688144A8B4A66228AE4659C634C99E36011584C095082A3A3E3FFFFFFFFFFFFFFFFFFFFFFFFFFFFFFFFFFFFFFFFFFFFFFFFFFFFFFFFFFFFFFFFFFFFFFFFFFFFFFFFFFFFFFFFFFFFFFFFFFFFFFFFFFFFFFFFFFFFFFFFFFFFFFFFFFFFFFFFFFFFFFFFFFFFFFFFFFFFFFFFFFFFFFFFFFFFFFFFFFFFFFFFFFFFFFFFFFFFFFFFFFFFFFFFFFFFFFFFFFFFFFFFFFFFFFFFFFFFFFFF00000000000000000000000000000000000000000000000000000000000000000000000000000000000
61120105A0000000250401103FFFF096D0F543F03F2517133EF2BA4A1104486758630DCFE3A883C77B4E4844E39A9BD6360D23E6644E1E071F196DDF2E4A68B4A3D93D14268D7240F6A14F0D714C17827D279D192E88931AF7300727AE9DA80A3F0E366AEBA61778171737989E1EE309FFFFFFFFFFFFFFFFFFFFFFFFFFFFFFFFFFFFFFFFFFFFFFFFFFFFFFFFFFFFFFFFFFFFFFFFFFFFFFFFFFFFFFFFFFFFFFFFFFFFFFFFFFFFFFFFFFFFFFFFFFFFFFFFFFFFFFFFFFFFFFFFFFFFFFFFFFFFFFFFFFFFFFFFFFFFFFFFFFFFFFFFFFFFFFFFFFFFFFFFFFFFFFFFFFFFFFFFFFFFFFFFFFFFFFFFFFFFFFFFFFFFFFFFFFFFFFFFFFFFFFFFFFFFFFFFFFFFFFFFFFFFFFFFFFFFFFFFFFFFFFFF00000000000000000000000000000000000000000000000000000000000000000000000000000000000
61120106A0000000250E01103FFFF144AA94A8C6DAD24F9BA56A27C09B01020819568B81A026BE9FD0A3416CA9A71166ED5084ED91CED47DD457DB7E6CBCD53E560BC5DF48ABC380993B6D549F5196CFA77DFB20A0296188E969A2772E8C4141665F8BB2516BA2C7B5FC91F8DA04E8D512EB0F6411516FB86FC021CE7E969DA94D33937909A53A57F907C40C22009DA7532CB3BE509AE173B39AD6A01BA5BB85FFFFFFFFFFFFFFFFFFFFFFFFFFFFFFFFFFFFFFFFFFFFFFFFFFFFFFFFFFFFFFFFFFFFFFFFFFFFFFFFFFFFFFFFFFFFFFFFFFFFFFFFFFFFFFFFFFFFFFFFFFFFFFFFFFFFFFFFFFFFFFFFFFFFFFFFFFFFFFFFFFFFFFFFFFFFFFFFFFFFFFFFFFFFFFFFFFFFFFFFFFFFFFFF00000000000000000000000000000000000000000000000000000000000000000000000000000000000
61120107A0000000256201103FFFF096BA29DE83090D8D5F4DFFCEB98918995A768F41D0183E1ACA3EF8D5ED9062853E4080E0D289A5CEDD4DD96B1FEA2C53428436CE15A2A1BFE69D46197D3F5A79BCF8F4858BFFA04EDB07FC5BE8560D9CE38F5C3CA3C742EDFDBAE3B5E6DDA45557FFFFFFFFFFFFFFFFFFFFFFFFFFFFFFFFFFFFFFFFFFFFFFFFFFFFFFFFFFFFFFFFFFFFFFFFFFFFFFFFFFFFFFFFFFFFFFFFFFFFFFFFFFFFFFFFFFFFFFFFFFFFFFFFFFFFFFFFFFFFFFFFFFFFFFFFFFFFFFFFFFFFFFFFFFFFFFFFFFFFFFFFFFFFFFFFFFFFFFFFFFFFFFFFFFFFFFFFFFFFFFFFFFFFFFFFFFFFFFFFFFFFFFFFFFFFFFFFFFFFFFFFFFFFFFFFFFFFFFFFFFFFFFFFFFFFFFFFFFFFFFFF00000000000000000000000000000000000000000000000000000000000000000000000000000000000
61120108A0000000256401103FFFF128B0DD551047DAFCD10D9A5E33CF47A9333E3B24EC57E8F066A72DED60E881A8AD42777C67ADDF0708042AB943601EE60248540B67E0637018EEB3911AE9C873DAD66CB40BC8F4DC77EB2595252B61C21518F79B706AAC29E7D3FD4D259DB72B6E6D446DD60386DB40F5FDB076D80374C993B4BB2D1DB977C3870897F9DFA454F5FFFFFFFFFFFFFFFFFFFFFFFFFFFFFFFFFFFFFFFFFFFFFFFFFFFFFFFFFFFFFFFFFFFFFFFFFFFFFFFFFFFFFFFFFFFFFFFFFFFFFFFFFFFFFFFFFFFFFFFFFFFFFFFFFFFFFFFFFFFFFFFFFFFFFFFFFFFFFFFFFFFFFFFFFFFFFFFFFFFFFFFFFFFFFFFFFFFFFFFFFFFFFFFFFFFFFFFFFFFFFFFFFFFFFFFFFFFFFFFF00000000000000000000000000000000000000000000000000000000000000000000000000000000000
61120109A0000000256501103FFFF144E53EB41F839DDFB474F272CD0CBE373D5468EB3F50F39C95BDF4D39FA82B98DABC9476B6EA350C0DCE1CD92075D8C44D1E57283190F96B3537D9E632C461815EBD2BAF36891DF6BFB1D30FA0B752C43DCA0257D35DFF4CCFC98F84198D5152EC61D7B5F74BD09383BD0E2AA42298FFB02F0D79ADB70D72243EE537F75536A8A8DF962582E9E6812F3A0BE02A4365400DFFFFFFFFFFFFFFFFFFFFFFFFFFFFFFFFFFFFFFFFFFFFFFFFFFFFFFFFFFFFFFFFFFFFFFFFFFFFFFFFFFFFFFFFFFFFFFFFFFFFFFFFFFFFFFFFFFFFFFFFFFFFFFFFFFFFFFFFFFFFFFFFFFFFFFFFFFFFFFFFFFFFFFFFFFFFFFFFFFFFFFFFFFFFFFFFFFFFFFFFFFFFFFFF00000000000000000000000000000000000000000000000000000000000000000000000000000000000