2841040110A0000000041010D0761200000000000012DEBIT MASTERCARD030002000200020769862012005532006002074200000033E0D0C8F900F0A00122FE50BCA0000000000000FE50BCF80000000000R143B9AC9FF0000000000002710000209F02065F2A029A039C0195059F370400000000009F37040000000000000000000000000000000000Y1Z1Y3Z3
2841040210A0000000041010D0761300000000000011MASTERCARD CREDI030002000200020769862012005532006002074200000033E0F0C8F900F0A00122FE50BCA0000000000000FE50BCF80000000000R143B9AC9FF0000000000002710000209F02065F2A029A039C0195059F370400000000009F37040000000000000000000000000000000000Y1Z1Y3Z3
2841040307A000000004306000000000000000000002MAESTRO         030002000200020769862012005532006002074200000033E0D0C8F900F0A00122FE50BCA0000000000000FE50BCF80000000000R143B9AC9FF0000000000002710000009F02065F2A029A039C0195059F370400000000009F37040000000000000000000000000000000000Y1Z1Y3Z3
2841040407A000000003101000000000000000000001VISA            030096008D008C0769862012005532006002074200000033E0F0C8F900F0A00122DC4000A8000010000000DC4004F80000000000R123B9AC9FF0000000000002710000009F02065F2A029A039C0195059F370400000000009F37040000000000000000000000000000000000Y1Z1Y3Z3
2841040507A000000494101000000000000000000001ELO CREDITO     030001000100010769862012005532006002074200000033E0D0C86000F0F00122FC408480000010000000FC6084900000000000R193B9AC9FF0000000000002710000109F02065F2A029A039C0195059F370400000000009F37040000000000000000000000000000000000Y1Z1Y3Z3
2841040607A000000494201000000000000000000002ELO DEBITO      030001000100010769862012005532006002074200000033E0D0C86000F0F00122FC408480000010000000FC6084900000000000R193B9AC9FF0000000000002710000109F02065F2A029A039C0195059F370400000000009F37040000000000000000000000000000000000Y1Z1Y3Z3
2841040707A000000494401000000000000000000001ELO PREPAGO     030001000100010769862012005532006002074200000033E0F0C86000F0F00122FC408480000010000000FC6084900000000000R193B9AC9FF0000000000002710000009F02065F2A029A039C0195059F370400000000009F37040000000000000000000000000000000000Y1Z1Y3Z3
2841040807A000000494501000000000000000000002ALELO REFEICAO  030001000100010769862012005532006002074200000033E0F0C86000F0F00122FC408480000010000000FC6084900000000000R00000000000000000000000000000009F02065F2A029A039C0195059F370400000000009F37040000000000000000000000000000000000Y1Z1Y3Z3
2841040907A000000494502000000000000000000002ALELO ALIMENTACA030001000100010769862012005532006002074200000033E0F0C86000F0F00122FC408480000010000000FC6084900000000000R00000000000000000000000000000009F02065F2A029A039C0195059F370400000000009F37040000000000000000000000000000000000Y1Z1Y3Z3
2841041006A000000025010000000000000000000001AMEX            030001000100010769862012005532006002074200000033E0F0C86000F0F00122C4000000000000000000C40000000000000000R16000005DC00000000000003E8000109F02065F2A029A039C0195059F370400000000009F37040000000000000000000000000000000000Y1Z1Y3Z3
2841041107A000000442101000000000000000000001CABAL CREDITO   030002200020000769862012005532006002074200000033E0F0C86000F0F00122F87088E8000000000000F8F8FCE80000000000R00000000000000000000000000000009F02065F2A029A039C0195059F370400000000009F37040000000000000000000000000000000000Y1Z1Y3Z3
2841041207A000000442201000000000000000000002CABAL DEBITO    030002200020000769862012005532006002074200000033E0F0C86000F0F00122F87088E8000000000000F8F8FCE80000000000R00000000000000000000000000000009F02065F2A029A039C0195059F370400000000009F37040000000000000000000000000000000000Y1Z1Y3Z3
2841041307A000000442301000000000000000000002CABAL ALIMENTACA030002200020000769862012005532006002074200000033E0F0C86000F0F00122F87088E8000000000000F8F8FCE80000000000R00000000000000000000000000000009F02065F2A029A039C0195059F370400000000009F37040000000000000000000000000000000000Y1Z1Y3Z3
2841041407A000000442301100000000000000000002CABAL REFEICAO  030002200020000769862012005532006002074200000033E0F0C86000F0F00122F87088E8000000000000F8F8FCE80000000000R00000000000000000000000000000009F02065F2A029A039C0195059F370400000000009F37040000000000000000000000000000000000Y1Z1Y3Z3
2841041507A000000442301200000000000000000002CABAL CULTURA   030002200020000769862012005532006002074200000033E0F0C86000F0F00122F87088E8000000000000F8F8FCE80000000000R00000000000000000000000000000009F02065F2A029A039C0195059F370400000000009F37040000000000000000000000000000000000Y1Z1Y3Z3
2841041607A000000442401000000000000000000002CABAL PEDAGIO   030002200020000769862012005532006002074200000033E0F0C86000F0F00122F87088E8000000000000F8F8FCE80000000000R00000000000000000000000000000009F02065F2A029A039C0195059F370400000000009F37040000000000000000000000000000000000Y1Z1Y3Z3
2841041707A000000537201000000000000000000002SODEXO ALIMENTAC030003000300030769862012005532006002074200000033E0F0C86000F0F00122F87088E8001010000000F8F888F80000000000R00000000000000000000000000000009F02065F2A029A039C0195059F370400000000009F37040000000000000000000000000000000000Y1Z1Y3Z3
2841041807A000000537202000000000000000000002SODEXO REFEICAO 030003000300030769862012005532006002074200000033E0F0C86000F0F00122F87088E8001010000000F8F888F80000000000R00000000000000000000000000000009F02065F2A029A039C0195059F370400000000009F37040000000000000000000000000000000000Y1Z1Y3Z3
2841041907A00000038800B000000000000000000002TICKET RESTAURAN030001000100010769862012005532006002074200000033E0F0C86000F0F00122CC58BC80000000000000CC78FCF80000000000R00000000000000000000000000000009F02065F2A029A039C0195059F370400000000009F37040000000000000000000000000000000000Y1Z1Y3Z3
2841042007A00000038800B100000000000000000002TICKET ALIMENTAC030001000100010769862012005532006002074200000033E0F0C86000F0F00122CC58BC80000000000000CC78FCF80000000000R00000000000000000000000000000009F02065F2A029A039C0195059F370400000000009F37040000000000000000000000000000000000Y1Z1Y3Z3
2841042107A00000038800B200000000000000000002TICKET PARCEIRO 030001000100010769862012005532006002074200000033E0F0C86000F0F00122CC58BC80000000000000CC78FCF80000000000R00000000000000000000000000000009F02065F2A029A039C0195059F370400000000009F37040000000000000000000000000000000000Y1Z1Y3Z3
2841042207A00000038800B300000000000000000002TICKET CULTURA  030001000100010769862012005532006002074200000033E0F0C86000F0F00122CC58BC80000000000000CC78FCF80000000000R00000000000000000000000000000009F02065F2A029A039C0195059F370400000000009F37040000000000000000000000000000000000Y1Z1Y3Z3
2841042307A00000038800B400000000000000000002TICKET          030001000100010769862012005532006002074200000033E0F0C86000F0F00122CC58BC80000000000000CC78FCF80000000000R00000000000000000000000000000009F02065F2A029A039C0195059F370400000000009F37040000000000000000000000000000000000Y1Z1Y3Z3
2841042409A000000003050760100000000000000001ELO CREDITO     030096008D008C0769862012005532006002074200000033E0F0C8F900F0A00122DC4000A8000010000000DC4004F80000000000R143B9AC9FF0000000000001388000009F02065F2A029A039C0195059F370400000000009F37040000000000000000000000000000000000Y1Z1Y3Z3
2841042507A000000555C12000000000000000000002PAYSMART DEBITO 030001000200030769862012005532006002074200000033E0F8C8F600F0F00122F87088E8000000000000F87088E80000000000R143B9AC9FF0000000000001388000009F02065F2A029A039C0195059F370400000000009F37040000000000000000000000000000000000Y1Z1Y3Z3
2841042609A000000003000502030000000000000002ALELO REFEICAO  030096008C008D0769862012005532006002074200000033E0F0C8F900F0A00122DC4000A8000010000000DC4004F80000000000R00000000000000000000000000000009F02065F2A029A039C0195059F370400000000009F37040000000000000000000000000000000000Y1Z1Y3Z3
2841042709A000000003000502020000000000000002ALELO ALIMENTACA030096008C008D0769862012005532006002074200000033E0F0C8F900F0A00122DC4000A8000010000000DC4004F80000000000R00000000000000000000000000000009F02065F2A029A039C0195059F370400000000009F37040000000000000000000000000000000000Y1Z1Y3Z3
2841042807A000000555C11000000000000000000001PAYSMART CREDITO030001000200030769862012005532006002074200000033E0F8C8F600F0F00122F87088E8000000000000F87088E80000000000R00000000000000000000000000000009F02065F2A029A039C0195059F370400000000009F37040000000000000000000000000000000000Y1Z1Y3Z3
2841042907A000000555C12000000000000000000002PAYSMART ONLINE 030002000200020769862012005532006002074200000033E0E8C8F600F0F00122F87088E8000000000000F87088E80000000000R00000000000000000000000000000009F02065F2A029A039C0195059F370400000000009F37040000000000000000000000000000000000Y1Z1Y3Z3
2841043007A000000004101000000000000000000001MASTERCARD      030002000200020769862012005532006002074200000033E0F0C8F000F0A00122FE50BCA0000000000000FE50BCF80000000000R143B9AC9FF0000000000002710000209F02065F2A029A039C0195059F370400000000009F37040000000000000000000000000000000000Y1Z1Y3Z3
2841043107A000000003201000000000000000000002ELECTRON        030096008D008C0769862012005532006002074200000033E0F0C8F000F0A00122DC4000A8000010000000DC4004F80000000000R123B9AC9FF0000000000002710000009F02065F2A029A039C0195059F370400000000009F37040000000000000000000000000000000000Y1Z1Y3Z3
2841043207A000000555C13000000000000000000002PAYSMART VOUCHER030001000200030769862012005532006002074200000033E0F8C8F600F0F00122F8F8FCE8000000000000F87088E80000000000R00000000000000000000000000000009F02065F2A029A039C0195059F370400000000009F37040000000000000000000000000000000000Y1Z1Y3Z3
2841043307A000000555E43000000000000000000002GREENCARD ALIMEN030001000200030769862012005532006002074200000033E0E8C8F600F0F00122F87088E8000000000000F8F8FCE80000000000R00000000000000000000000000000009F02065F2A029A039C0195059F370400000000009F37040000000000000000000000000000000000Y1Z1Y3Z3
2841043407A000000555E44000000000000000000002GREENCARD REFEIC030001000200030769862012005532006002074200000033E0E8C8F600F0F00122F87088E8000000000000F8F8FCE80000000000R00000000000000000000000000000009F02065F2A029A039C0195059F370400000000009F37040000000000000000000000000000000000Y1Z1Y3Z3
2841043507A000000555E45000000000000000000002GREENCARD MULTI 030001000200030769862012005532006002074200000033E0E8C8F600F0F00122F87088E8000000000000F8F8FCE80000000000R00000000000000000000000000000009F02065F2A029A039C0195059F370400000000009F37040000000000000000000000000000000000Y1Z1Y3Z3
2841043607A000000555E53000000000000000000002PAYSMART ALIMENT030001000200030769862012005532006002074200000033E0F8C8F600F0F00122F87088E8000000000000F8F8FCE80000000000R00000000000000000000000000000009F02065F2A029A039C0195059F370400000000009F37040000000000000000000000000000000000Y1Z1Y3Z3
2841043707A000000555E56000000000000000000001PAYSMART CREDITO030001000200030769862012005532006002074200000033E0F8C8F600F0F00122F87088E8000000000000F8F8FCE80000000000R00000000000000000000000000000009F02065F2A029A039C0195059F370400000000009F37040000000000000000000000000000000000Y1Z1Y3Z3
2841043807A000000555E54000000000000000000002PAYSMART REFEICA030001000200030769862012005532006002074200000033E0F8C8F600F0F00122F87088E8000000000000F8F8FCE80000000000R00000000000000000000000000000009F02065F2A029A039C0195059F370400000000009F37040000000000000000000000000000000000Y1Z1Y3Z3
2841043907A000000555E55300000000000000000002PAYSMART VOUCHER030001000200030769862012005532006002074200000033E0F8C8F600F0F00122F87088E8000000000000F8F8FCE80000000000R00000000000000000000000000000009F02065F2A029A039C0195059F370400000000009F37040000000000000000000000000000000000Y1Z1Y3Z3
2841044007A000000589100100000000000000000002UP BRASIL VOUCHE030001000200030769862012005532006002074200000033E0F8C8F600F0F00122DCF8FCF8F02000000000DCF8FCF8F000000000R00000000000000000000000000000009F02065F2A029A039C0195059F370400000000009F37040000000000000000000000000000000000Y1Z1Y3Z3
2841044107A000000589200100000000000000000002UP BRASIL DEBITO030001000200030769862012005532006002074200000033E0F8C8F600F0F00122DCF8FCF8F02000000000DCF8FCF8F000000000R00000000000000000000000000000009F02065F2A029A039C0195059F370400000000009F37040000000000000000000000000000000000Y1Z1Y3Z3
2841044207A000000589300100000000000000000002UP BRASIL FRETE 030001000200030769862012005532006002074200000033E0F8C8F600F0F00122DCF8FCF8F02000000000DCF8FCF8F000000000R00000000000000000000000000000009F02065F2A029A039C0195059F370400000000009F37040000000000000000000000000000000000Y1Z1Y3Z3
2841044307A000000589400100000000000000000001UP BRASIL CREDIT030001000200030769862012005532006002074200000033E0F8C8F600F0F00122DCF8FCF8F02000000000DCF8FCF8F000000000R00000000000000000000000000000009F02065F2A029A039C0195059F370400000000009F37040000000000000000000000000000000000Y1Z1Y3Z3
2841044407A000000589500100000000000000000002UP BRASIL FROTA 030001000200030769862012005532006002074200000033E0F8C8F600F0F00122DCF8FCF8F02000000000DCF8FCF8F000000000R00000000000000000000000000000009F02065F2A029A039C0195059F370400000000009F37040000000000000000000000000000000000Y1Z1Y3Z3
2841044507A000000557602700000000000000000002VR ALIMENTACAO  030001000200030769862012005532006002074200000033E0F8C8F600F0F00122F850ACF8000000000000F850ACF80000000000R00000000000000000000000000000009F02065F2A029A039C0195059F370400000000009F37040000000000000000000000000000000000Y1Z1Y3Z3
2841044607A000000557602800000000000000000002VR AUTO         030001000200030769862012005532006002074200000033E0F8C8F600F0F00122F850ACF8000000000000F850ACF80000000000R00000000000000000000000000000009F02065F2A029A039C0195059F370400000000009F37040000000000000000000000000000000000Y1Z1Y3Z3
2841044707A000000557603000000000000000000002VR CULTURA      030001000200030769862012005532006002074200000033E0F8C8F600F0F00122F850ACF8000000000000F850ACF80000000000R00000000000000000000000000000009F02065F2A029A039C0195059F370400000000009F37040000000000000000000000000000000000Y1Z1Y3Z3
2841044807A000000557603400000000000000000002VR MULTI        030001000200030769862012005532006002074200000033E0F8C8F600F0F00122F850ACF8000000000000F850ACF80000000000R00000000000000000000000000000009F02065F2A029A039C0195059F370400000000009F37040000000000000000000000000000000000Y1Z1Y3Z3
2841044907A000000557603100000000000000000002VR REFEICAO     030001000200030769862012005532006002074200000033E0F8C8F600F0F00122F850ACF8000000000000F850ACF80000000000R00000000000000000000000000000009F02065F2A029A039C0195059F370400000000009F37040000000000000000000000000000000000Y1Z1Y3Z3
3141045010A0000000041010D0761200000000000012DEBIT MASTERCARD030002000200020769862012005532443001074200000027E04008F900F0A00122FE50BCA0000000000000FE50BCF80000000000R143B9AC9FF0000000000002710000209F02065F2A029A039C0195059F370400000000009F37040000000000000000000000000000000000Y1Z1Y3Z3F45084800C0000800000F45004800C
3141045110A0000000041010D0761300000000000011MASTERCARD CREDI030002000200020769862012005532443001074200000027E06008F900F0A00122FE50BCA0000000000000FE50BCF80000000000R143B9AC9FF0000000000002710000209F02065F2A029A039C0195059F370400000000009F37040000000000000000000000000000000000Y1Z1Y3Z3F45084800C0000000000F45084800C
3141045207A000000004306000000000000000000002MAESTRO         030002000200020769862012005532443001074200000027E04008F900F0A00122FE50BCA0000000000000FE50BCF80000000000R143B9AC9FF0000000000002710000009F02065F2A029A039C0195059F370400000000009F37040000000000000000000000000000000000Y1Z1Y3Z3F45084800C0000800000F45084800C
3141045307A000000003101000000000000000000001VISA            030096008D008C0769862012005532443001074200000027E06008F900F0A00122DC4000A8000010000000DC4004F80000000000R123B9AC9FF0000000000002710000009F02065F2A029A039C0195059F370400000000009F37040000000000000000000000000000000000Y1Z1Y3Z3D84000A8000010000000D84000A800
3141045407A000000494101000000000000000000001ELO CREDITO     030001000100010769862012005532443001074200000027E04808F900F0A00122FC408480000010000000FC6084900000000000R193B9AC9FF0000000000002710000109F02065F2A029A039C0195059F370400000000009F37040000000000000000000000000000000000Y1Z1Y3Z3FC408480000010000000FC60849000
3141045507A000000494201000000000000000000002ELO DEBITO      030001000100010769862012005532443001074200000027E04808F900F0A00122FC408480000010000000FC6084900000000000R193B9AC9FF0000000000002710000109F02065F2A029A039C0195059F370400000000009F37040000000000000000000000000000000000Y1Z1Y3Z3FC408480000010000000FC60849000
3141045607A000000494401000000000000000000001ELO PREPAGO     030001000100010769862012005532443001074200000027E060086000F0F00122FC408480000010000000FC6084900000000000R193B9AC9FF0000000000002710000009F02065F2A029A039C0195059F370400000000009F37040000000000000000000000000000000000Y1Z1Y3Z3584000A8000010000000DC4000A800
3141045706A000000025010000000000000000000001AMEX            030001000100010769862012005532443001074200000027E068C8F000F0A00122C4000000000000000000C40000000000000000R16000005DC00000000000003E8000109F02065F2A029A039C0195059F370400000000009F37040000000000000000000000000000000000Y1Z1Y3Z3DC50FC98000010000000DE00FC9800
3141045809A000000003050760100000000000000001ELO CREDITO     030096008D008C0769862012005532443001074200000027E06008F900F0A00122DC4000A8000010000000DC4004F80000000000R143B9AC9FF0000000000001388000009F02065F2A029A039C0195059F370400000000009F37040000000000000000000000000000000000Y1Z1Y3Z3F45084800C0010000000F45084800C
3141045907A000000555C12000000000000000000002PAYSMART DEBITO 030001000200030769862012005532443001074200000027E06008F900F0A00122F87088E8000000000000F87088E80000000000R143B9AC9FF0000000000001388000009F02065F2A029A039C0195059F370400000000009F37040000000000000000000000000000000000Y1Z1Y3Z3F45084800C0010000000F45084800C
3141046007A000000004101000000000000000000001MASTERCARD      030002000200020769862012005532443001074200000027E06008F900F0A00122FE50BCA0000000000000FE50BCF80000000000R143B9AC9FF0000000000002710000209F02065F2A029A039C0195059F370400000000009F37040000000000000000000000000000000000Y1Z1Y3Z3F45084800C0000000000F45084800C
3141046107A000000003201000000000000000000002ELECTRON        030096008D008C0769862012005532443001074200000027E06008F900F0A00122DC4000A8000010000000DC4004F80000000000R123B9AC9FF0000000000002710000009F02065F2A029A039C0195059F370400000000009F37040000000000000000000000000000000000Y1Z1Y3Z3D84000A8000010000000D84004F800
61120462A00000000394001030000248ACD2B12302EE644F3F835ABD1FC7A6F62CCE48FFEC622AA8EF062BEF6FB8BA8BC68BBF6AB5870EED579BC3973E121303D34841A796D6DCBC41DBF9E52C4609795C0CCF7EE86FA1D5CB041071ED2C51D2202F63F1156C58A92D38BC60BDF424E1776E2BC9648078A03B36FB554375FC53D57C73F5160EA59F3AFC5398EC7B67758D65C9BFF7828B6B82D4BE124A416AB7301914311EA462C19F771F31B3B57336000DFF732D3B83DE07052D730354D297BEC72871DCCF0E193F171ABA27EE464C6A97690943D59BDABB2A27EB71CEEBDAFA1176046478FD62FEC452D5CA393296530AA3F41927ADFE434A2DF2AE3054F8840657A26E0FC61700000000000000000000000000000000000000000000000000000000000000000000000000000000000
61120463A00000000392001030000176996AF56F569187D09293C14810450ED8EE3357397B18A2458EFAA92DA3B6DF6514EC060195318FD43BE9B8F0CC669E3F844057CBDDF8BDA191BB64473BC8DC9A730DB8F6B4EDE3924186FFD9B8C7735789C23A36BA0B8AF65372EB57EA5D89E7D14E9C7B6B557460F10885DA16AC923F15AF3758F0F03EBD3C5C2C949CBA306DB44E6A2C076C5F67E281D7EF56785DC4D75945E491F01918800A9E2DC66F60080566CE0DAF8D17EAD46AD8E30A247C9F00000000000000000000000000000000000000000000000000000000000000000000000000000000000000000000000000000000000000000000000000000000000000000000000000000000000000000000000000000000000000000000000000000000000000000000000000000000000
61120464A000000004FE001030000128A653EAC1C0F786C8724F737F172997D63D1C3251C44402049B865BAE877D0F398CBFBE8A6035E24AFA086BEFDE9351E54B95708EE672F0968BCD50DCE40F783322B2ABA04EF137EF18ABF03C7DBC5813AEAEF3AA7797BA15DF7D5BA1CBAF7FD520B5A482D8D3FEE105077871113E23A49AF3926554A70FE10ED728CF793B62A100000000000000000000000000000000000000000000000000000000000000000000000000000000000000000000000000000000000000000000000000000000000000000000000000000000000000000000000000000000000000000000000000000000000000000000000000000000000000000000000000000000000000000000000000000000000000000000000000000000000000000000000000000000000
61120465A000000004F300103000014498F0C770F23864C2E766DF02D1E833DFF4FFE92D696E1642F0A88C5694C6479D16DB1537BFE29E4FDC6E6E8AFD1B0EB7EA0124723C333179BF19E93F10658B2F776E829E87DAEDA9C94A8B3382199A350C077977C97AFF08FD11310AC950A72C3CA5002EF513FCCC286E646E3C5387535D509514B3B326E1234F9CB48C36DDD44B416D23654034A66F403BA511C5EFA3000000000000000000000000000000000000000000000000000000000000000000000000000000000000000000000000000000000000000000000000000000000000000000000000000000000000000000000000000000000000000000000000000000000000000000000000000000000000000000000000000000000000000000000000000000000000000000000000000
61120466A000000004EF001030000248A191CB87473F29349B5D60A88B3EAEE0973AA6F1A082F358D849FDDFF9C091F899EDA9792CAF09EF28F5D22404B88A2293EEBBC1949C43BEA4D60CFD879A1539544E09E0F09F60F065B2BF2A13ECC705F3D468B9D33AE77AD9D3F19CA40F23DCF5EB7C04DC8F69EBA565B1EBCB4686CD274785530FF6F6E9EE43AA43FDB02CE00DAEC15C7B8FD6A9B394BABA419D3F6DC85E16569BE8E76989688EFEA2DF22FF7D35C043338DEAA982A02B866DE5328519EBBCD6F03CDD686673847F84DB651AB86C28CF1462562C577B853564A290C8556D818531268D25CC98A4CC6A0BDFFFDA2DCCA3A94C998559E307FDDF915006D9A987B07DDAEB3B00000000000000000000000000000000000000000000000000000000000000000000000000000000000
61120467A000000004F1001030000176A0DCF4BDE19C3546B4B6F0414D174DDE294AABBB828C5A834D73AAE27C99B0B053A90278007239B6459FF0BBCD7B4B9C6C50AC02CE91368DA1BD21AAEADBC65347337D89B68F5C99A09D05BE02DD1F8C5BA20E2F13FB2A27C41D3F85CAD5CF6668E75851EC66EDBF98851FD4E42C44C1D59F5984703B27D5B9F21B8FA0D93279FBBF69E090642909C9EA27F898959541AA6757F5F624104F6E1D3A9532F2A6E51515AEAD1B43B3D7835088A2FAFA7BE700000000000000000000000000000000000000000000000000000000000000000000000000000000000000000000000000000000000000000000000000000000000000000000000000000000000000000000000000000000000000000000000000000000000000000000000000000000000
61120468A000000442F1003010001176D9E36579B94A5FF3150B64643D85C06E6E9F0682BE56CDD69FCB053913495BDBC327DA3CAC0EA2A0DA1D55DF7C66A0C6F6A9039FA72753C434F4A63BED54062799DF1F6D6E1F315A8F4109721126E11F4FF562C18A4AE6A4D9F0C2A5C2A8E44D6A98628C7E25290584F0F3D9ECE6566FDB7688596649BEC89A1CBC8BBED075538300D0D83FF8755E1CE73668908C387E14ACDF0F9F1DE436A5A07308812D6AE3A16170EDF2522B36FBE94358F50C0B6900000000000000000000000000000000000000000000000000000000000000000000000000000000000000000000000000000000000000000000000000000000000000000000000000000000000000000000000000000000000000000000000000000000000000000000000000000000000
61120469A000000442F2003010001248F1E227BE5F488FB217C01C9997E5E9976005206A6D7C0296166284D45C079FF3ED03BC2163F60E0D8815C028D52977835EC5A2B59E58552FFACFE582945D510F63D34D5272412C3254343B48D0965E735C8CE4F3114AA68F3B70C0B62A45B840246CA3271E2AFAE143C8174DDAF466F23A14C012F5FAE84CA3ED0CFF808FCD25939EF70AF0F59C837200F31093F7695478B4146BAF3129C0F6DF862F3D0B28813CD6328C0A1AA01F6E07A1B3368F1157C41DEA487DEC0E735491470BBD58D1168C04C7878F3DE755B32379823DBD55F200BD62DC8E7EFA0DA41CA574BD891B81E3ACF056A3843D69E83C72AE5C7D467596829591EFC8518300000000000000000000000000000000000000000000000000000000000000000000000000000000000
61120470A000000494E0001030000144D8D8A754F12A90EB3D1A6828F65300F1E938877732AC1CBB75E74EE9129398F62B8DE7812873442B5FA5CB27A42D17170E4F45B22AF25B03F36246ACD8C682292363C9C9FA470D4F60C2500E70732D19346E50097558E85428BF23C04D6907769E4B3236C84E4D43B3E07BD2CC8F8334022EDA760086BD4DD5088179A7EA3A42B4AC82C971287A0DD5E985DA6D8DF499000000000000000000000000000000000000000000000000000000000000000000000000000000000000000000000000000000000000000000000000000000000000000000000000000000000000000000000000000000000000000000000000000000000000000000000000000000000000000000000000000000000000000000000000000000000000000000000000000
61120471A000000494E1001030000176BEFA49A34C81522C4499745F2FFEDC5597A8049D8C75D80F3AE606DCEF62D2DD9AA97A031AFA0FDC80737C031D09729E25E9DF1A5C05E88040F7C4CEE2AFC0398A0BCF2BB491CD36F4F5C359B9BF7B12958C2E79E06BBB2F37BF748177E1AF6662F9EDEFED3A15A6E5E87A6258DE4F83B1AC75757526C9961C29DEB7E5C67B18A81FEB2F0E4E62DF86B75B2DE834EB4CA838EB486C18C161AED45159DCDEA9F0CF724F3DD6B7222A539F037E5291084500000000000000000000000000000000000000000000000000000000000000000000000000000000000000000000000000000000000000000000000000000000000000000000000000000000000000000000000000000000000000000000000000000000000000000000000000000000000
61120472A000000494E2001030000248B303169291494ED69263243D1A617A15F943413D2ECFF0A98292884D15826B494E7925A087BC1FE54FCA44DAACB0A91A8F384F1AA9189F5EC7B15211C66129E2640A75313D584C6A992E04521B70E25DB49E35E65959F136ACE71602C954EB83E4223BECCD5DFF089AF5A5B444BF914463EF855E6DD642EBC6CA6CE662AFCA3DFFA32A44AB0D0C8CE1DBCEFFCA56CEBE31BDDCCB9DBD1C3BD00C099BBFBEEADC2672B809AFFDF2D1571AA4CC8AF96D41B0CF72369CEF6B15AED7930E21CC95AD32EEEB55210800942CDF82DB5B3B3B4896B15D1899114ED33DA43900B6DAF941BBD69431E83BE4D01E4FC36922C497E9F370309D51D6670700000000000000000000000000000000000000000000000000000000000000000000000000000000000
61120473A000000537F1003010001176D9E36579B94A5FF3150B64643D85C06E6E9F0682BE56CDD69FCB053913495BDBC327DA3CAC0EA2A0DA1D55DF7C66A0C6F6A9039FA72753C434F4A63BED54062799DF1F6D6E1F315A8F4109721126E11F4FF562C18A4AE6A4D9F0C2A5C2A8E44D6A98628C7E25290584F0F3D9ECE6566FDB7688596649BEC89A1CBC8BBED075538300D0D83FF8755E1CE73668908C387E14ACDF0F9F1DE436A5A07308812D6AE3A16170EDF2522B36FBE94358F50C0B6900000000000000000000000000000000000000000000000000000000000000000000000000000000000000000000000000000000000000000000000000000000000000000000000000000000000000000000000000000000000000000000000000000000000000000000000000000000000
61120474A00000002567001030000176C687ADCCF3D57D3360B174E471EDA693AA555DFDC6C8CD394C74BA25CCDF8EABFD1F1CEADFBE2280C9E81F7A058998DC22B7F22576FE84713D0BDD3D34CFCD12FCD0D26901BA74103D075C664DABCCAF57BF789494051C5EC303A2E1D784306D3DB3EB665CD360A558F40B7C05C919B2F0282FE1ED9BF6261AA814648FBC263B14214491DE426D242D65CD1FFF0FBE4D4DAFF5CFACB2ADC7131C9B147EE791956551076270696B75FD97373F1FD7804F00000000000000000000000000000000000000000000000000000000000000000000000000000000000000000000000000000000000000000000000000000000000000000000000000000000000000000000000000000000000000000000000000000000000000000000000000000000000
61120475A00000002568001030000248F4D198F2F0CF140E4D2D81B765EB4E24CED4C0834822769854D0E97E8066CBE465029B3F410E350F6296381A253BE71A4BBABBD516625DAE67D073D00113AAB9EA4DCECA29F3BB7A5D46C0D8B983E2482C2AD759735A5AB9AAAEFB31D3E718B8CA66C019ECA0A8BE312E243EB47A62300620BD51CF169A9194C17A42E51B34D83775A98E80B2D66F4F98084A448FE0507EA27C905AEE72B62A8A29438B6A4480FFF72F93280432A55FDD648AD93D82B9ECF01275C0914BAD8EB3AAF46B129F8749FEA425A2DCDD7E813A08FC0CA7841EDD49985CD8BC6D5D56F17AB9C67CEC50BA422440563ECCE21699E435C8682B6266393672C693D8B700000000000000000000000000000000000000000000000000000000000000000000000000000000000
61120476A000000388020010300002489CEBC7B2BA9DA08EE6EE427BC92CAC39CD9B4308BD89DF7CEB591EECF4389E34EF62F56BFB960853159AFE9AD5E6F70914EB1910D0B38355BCDCDD0DCD51794EB3FA2821070B12C70DD06D0DEBFA804321718C4F14BC5C3B2BA547151046D306FEB265CAAB6B571C05E855FDCA0FE1CC3FF843B4A46B616BB3BF87EC66B8A037B57A2C746D7BAE42DDCB7D08644A87F29027B26562513B7A239A242F74A3B38AE28AB9C181ED8159285631D27004D6400C3BB55443E561E7F3B1D39F4CBA7CFDAFFEE5AECCA671B5D492D557F321F6CD54ABE49C2939426B48E1BF7E9003CF9AC720EC831BF4BA595A87261C6D28198BB0124F33FC12C63300000000000000000000000000000000000000000000000000000000000000000000000000000000000
61120477A000000494D10010300001768C9573046271F63763A09632D8B8EEC9DDE56D7A53FDE83A1E0FC075D80719FAEFE96F6E404D2F0AE6F48A459B898C9FAD79E144F2F77AB68E6F74D5F03BB615B3916128CA6E9353F171BD2122B17135F72625A6BA20E62A6C22A1D553EAA93A630F9AF4329AEA5ACDAF9636EA0EA78A8B59CD75DD4FCD9A0929E6BF1BAD93365130A08CA059A1CC298E5BAE2BB23359E8CD7864D1F0F61905D259B721FB39BCCB2116992DDE514C1EA2943E6FD789AD00000000000000000000000000000000000000000000000000000000000000000000000000000000000000000000000000000000000000000000000000000000000000000000000000000000000000000000000000000000000000000000000000000000000000000000000000000000000
61120478A000000025C9001030000176B362DB5733C15B8797B8ECEE55CB1A371F760E0BEDD3715BB270424FD4EA26062C38C3F4AAA3732A83D36EA8E9602F6683EECC6BAFF63DD2D49014BDE4D6D603CD744206B05B4BAD0C64C63AB3976B5C8CAAF8539549F5921C0B700D5B0F83C4E7E946068BAAAB5463544DB18C63801118F2182EFCC8A1E85E53C2A7AE839A5C6A3CABE73762B70D170AB64AFC6CA482944902611FB0061E09A67ACB77E493D998A0CCF93D81A4F6C0DC6B7DF22E62DB00000000000000000000000000000000000000000000000000000000000000000000000000000000000000000000000000000000000000000000000000000000000000000000000000000000000000000000000000000000000000000000000000000000000000000000000000000000000
61120479A000000025CA001030000248C23ECBD7119F479C2EE546C123A585D697A7D10B55C2D28BEF0D299C01DC65420A03FE5227ECDECB8025FBC86EEBC1935298C1753AB849936749719591758C315FA150400789BB14FADD6EAE2AD617DA38163199D1BAD5D3F8F6A7A20AEF420ADFE2404D30B219359C6A4952565CCCA6F11EC5BE564B49B0EA5BF5B3DC8C5C6401208D0029C3957A8C5922CBDE39D3A564C6DEBB6BD2AEF91FC27BB3D3892BEB9646DCE2E1EF8581EFFA712158AAEC541C0BBB4B3E279D7DA54E45A0ACC3570E712C9F7CDF985CFAFD382AE13A3B214A9E8E1E71AB1EA707895112ABC3A97D0FCB0AE2EE5C85492B6CFD54885CDD6337E895CC70FB3255E300000000000000000000000000000000000000000000000000000000000000000000000000000000000
61120480A000000555F2003010001176B5078BFA8732EA4A7C432EB50C66A12B0EA5F042FDB8EE4A4CC6E2C6009CD5DB1D5B6D9BABCBA33371ADCBF437A467458D9D3BFF249E7EB3A95453CBCC6BDFB4D84B589D2B5E5356B815FB1C54E3E2173D702B25C88A0EE144921BAAB735CDC61D3F34F4D2444CC2BF1DEA3B3C75BE43501EBDF72E7D6E87599E58F563D257A3D4DC4A7C4E9836BCE27F96F187170DDFE4B774E3F945BEFD0EA653AFBD532270A7C9F95DD452DF6AD8F3737297AF2EDD00000000000000000000000000000000000000000000000000000000000000000000000000000000000000000000000000000000000000000000000000000000000000000000000000000000000000000000000000000000000000000000000000000000000000000000000000000000000
61120481A000000555F3003010001248D52FBF5E6322A740D5F5D8CDBB8F44BFC385DCA43EB0FBECA01647C19B47E0E2C3AE0530A97CDB935028AC02F9D9FEBC69BAC8C0939BE1CF24CDE6F8DD06ED67A7B977F4577FD180D0FA6EA9F9EA37739FE50D18CB84C8E57713841AF73B012346772E1A92286C42A3163DDFB8ADD75C1DA6F3E63F79E949B8717B5885D4B7BD873E1018DF757696BFB2F8DD2C4657D8AAACFA3DC527894CE1CF52FF282987A4C1E4BC39ACF218F560E14CF58C6D8064D54EF1DD8E5C8EEC0150C0C7631AEDE5F04BB43E9465B4EB71C25F0C9BED0329DB2721B3EDBE7CCC96A62E9413AD05745B4ABDD0C6B0BB7A9AE41AFDAF030F19A8F2C0278404144D00000000000000000000000000000000000000000000000000000000000000000000000000000000000